:100000000C9434000C94F9050C94F9050C94F90542
:100010000C94F9050C94F9050C94F9050C94F90568
:100020000C94F9050C94F9050C94F9050C94F90558
:100030000C94F9050C94F9050C94F9050C94F90548
:100040000C94F9050C94F9050C94F9050C94F90538
:100050000C94F9050C94F9050C94F9050C94F90528
:100060000C94F9050C94F9051124EFEFEDBFE8E0CD
:10007000EEBFA0E0B1E0D2E0E6E7FFE002C005900D
:100080000D92AC3ABD07D9F7ACEAB2E0D3E00C94DC
:100090004A001D92A13BBD07E1F70C947100612D50
:1000A000512D212D312D6150510921093109A1E036
:1000B0006A0F511D211D311D7091000140910101F8
:1000C000715041097093000140930101A0E87A2F1B
:1000D000AAE18A2FA6E0671758072A0731053CF3E3
:1000E0000895DF93CF93CDB7DEB7C250D1400FB69E
:1000F000F894DEBF0FBECDBF0E94DA0080EB93E024
:10010000A0E84A2FA5E25A2F612D712D0E94FB0510
:10011000ACE52A2F2093B0032AE032E0190180EBEE
:1001200093E062E472E00E94DF0680EB93E00E94BD
:100130003106B10180EB93E00E94AC0680EB93E0C6
:100140000E94310680EB93E062E070E06C0F7D1F4F
:100150000E94820642E050E04C0F5D1F8CEA92E064
:10016000AFEF6A2F712D0E9458016CEA72E080EBAC
:1001700093E00E94DF0680EB93E00E94310680EB63
:1001800093E00E94310680EB93E063E672E00E9408
:10019000DF0680EB93E00E949307282E622D80EB10
:1001A00093E00E9425070E944F0080EB93E00E949D
:1001B0003106E9CF089508950895DF93CF93CDB721
:1001C000DEB7C450D0400FB6F894DEBF0FBECDBF2F
:1001D000CC5FDF4F0FB6F894DEBF0FBECDBFCF911F
:1001E000DF910895DF93CF93CDB7DEB7C450D040F1
:1001F0000FB6F894DEBF0FBECDBFCC5FDF4F0FB69A
:10020000F894DEBF0FBECDBFCF91DF9108957F92EE
:100210006F925F924F923F922F926817790709F47D
:1002200040C0141615060CF03CC06817790730F072
:100230001A01280E391E26163706D0F4292E382F1B
:10024000262F372E2A01430E521C0EC0E32FF22D0B
:100250002F933F92BF91AF9100800C92A1E02A0FA3
:10026000311CA1E03A0F211C3415250478F319C084
:100270003A01680E791E362D272C460F571F242F62
:10028000352E0CC02150310831502108E32FF22DBA
:100290002F933F92BF91AF9100800C9283179205EC
:1002A00088F32F903F904F905F906F907F900895CC
:1002B0004F923F922F921C01CA01FC0140806415AD
:1002C00071050CF4462E442D4395512DB1010E9429
:1002D0000701F10140822F903F904F9008959C01BB
:1002E000812D912D2115310551F003C0A1E08A0F18
:1002F000911DF901E80FF91F40814115B9F70895E3
:100300000F93FF92EF92CF92BF92AF929F928F92F4
:100310007F926F925F924F923F922F92362E972E3E
:10032000A82E492E522E232E3A01012DF12CE12C1C
:10033000C12C31149104A104410481F40E94DC0019
:10034000B82E892E0E942A05AC01A8EC6A2F712DC7
:10035000812D912D2B2D382D0E94BF055114210484
:100360006104710409F451C0B22C652D7B2DC301C9
:100370000E941303882E212C632D792D8A2D942D14
:100380000E941303212D881622060CF43EC0482D2E
:10039000922D481B920B242F732D892D2A2C342D3E
:1003A000222331F0770F881F221C331F2A95D1F7A3
:1003B000242F211591050CF428C0A1E02A0F911DCE
:1003C000215091095716B80662047306B0F0571A07
:1003D000B80A6208730A322EA1E04A2E412D512D2F
:1003E000612D332031F0440C441F551F661F3A9491
:1003F000D1F7040DF41EE51EC61E36952794879589
:100400007795121619060CF4DBCF602F7F2D8E2DF9
:100410009C2D2F903F904F905F906F907F908F908A
:100420009F90AF90BF90CF90EF90FF900F91089565
:100430009F928F927F926F925F924F923F922F92F4
:100440001C012B01612C712C2114310471F40E94C8
:10045000DC004C010E942A05AC01A8EC6A2F712D2A
:10046000812D912D94010E94BF054114510409F47E
:100470002BC0C2010E94FB02882EC1010E94FB0218
:10048000881608F421C0881A282D222321F0220C76
:10049000331C2A95E1F78114B8F083948A944214AE
:1004A000530470F042185308A1E03A2F212D482D33
:1004B000442321F0330F221F4A95E1F7630E721E89
:1004C00036942794181450F3C3012F903F904F9007
:1004D0005F906F907F908F909F9008956F925F9242
:1004E0004F923F922F92282E362E412C211481F4C8
:1004F0000E94DC00582E692E0E942A05AC01A8EC4F
:100500006A2F712D812D912D252D362D0E94BF052D
:10051000311409F423C0832D0E94F502582E822D38
:100520000E94F5025816D0F0581A252D222319F0F2
:10053000220C2A95E9F7511488F053945A943214F6
:1005400050F03218A1E02A2F352D332319F0220F55
:100550003A95E9F7420E2694151480F3842D2F90D6
:100560003F904F905F906F9008956F925F924F927F
:100570003F922F92282E362E412C211481F40E9476
:10058000DC00582E692E0E942A05AC01A8EC6A2FC7
:10059000712D812D912D252D362D0E94BF053114F1
:1005A000E9F0832D0E94F502582E822D0E94F5025B
:1005B000581610F4432C12C0581A252D222319F076
:1005C000220C2A95E9F7511440F053945A943214AE
:1005D00008F0321826941514C8F3432C842D2F905C
:1005E0003F904F905F906F900895EAE0F1E0E80F40
:1005F000F11D80810895382FAFEFA317190681E010
:1006000008F0812D880F880F880F282F222321F0D2
:10061000969537952A95E1F7EAE0F1E0E30FF11DB1
:100620002081822B08952F92582FAFEF4A2FAFEFE2
:100630004617A7071506190681E008F0812D880FD7
:10064000880F880F880F282F222331F09695579511
:10065000779567952A95D1F7AFEFA6171706150678
:10066000190621E008F0212D220F220F220F822BE4
:10067000282F2870222331F0969557957795679506
:100680002A95D1F7EAE0F1E0E60FF11D2081822BF7
:100690002F900895BF92AF929F928F927F926F9208
:1006A0005F924F923F922F92792EA1E06A2E312CC9
:1006B000FB011082AAE0FA01A083E82FF72D208128
:1006C000211531F4562C932DBAC0A1E06A0E311CCD
:1006D000E82FF72D308136151304A4F0E82FF72DFD
:1006E000E60DF11DB080212C212D312DA9E0BA1687
:1006F00021042105310549F3A0E2BA1621042105A0
:10070000310519F3E82FF72DE60DF11D2081ABE23D
:100710002A17A0F0322F2B52ABE23A1761F0322F9A
:100720002250A2E03A1751F4A1E0FB01A083A1E01E
:100730006A0E311C03C0A1E06A0E311CE82FF72DB0
:100740003081361513040CF46BC0E82FF72DE60D3D
:10075000F11D2081A4E22A1708F462C0322F24522E
:10076000A4E23A17E9F0322F2A95A1E03A1709F4EA
:100770001EC0322F2A95A1E03A1709F41FC0322F6C
:100780002A50AAE03A1709F420C0322F2852A8E2D2
:100790003A1731F0322F2052A0E23A1709F040C048
:1007A000A0E1FA01A083A1E06A0E311C39C0A2E0E9
:1007B000FA01A083A1E06A0E311C32C0A8E0FA0160
:1007C000A083A1E06A0E311C2BC0E82FF72D3081E9
:1007D000631631040CF024C0362D232DA1E03A0F0E
:1007E000211DE82FF72DE30FF11D9080712D212C95
:1007F000412CA8E59A1671052104410431F0A8E7BF
:100800009A1671052104410459F4A2E06A0E311CC4
:10081000A0E1FA01A08304C003C0A1E06A0E311C6C
:10082000E82FF72D3081631631043CF4E82FF72DC3
:10083000E60DF11D2081203381F3562C932D852D5B
:100840002F903F904F905F906F907F908F909F90F0
:10085000AF90BF900895DF93CF938F927F926F9266
:100860005F924F923F922F92CDB7DEB7C450D040E7
:100870000FB6F894DEBF0FBECDBF382E492E262E00
:10088000572E612C812C832D942D42E050E04C0F8B
:100890005D1F63E070E06C0F7D1F0E944A03E22D34
:1008A000F52D808391832B81211509F0C0C0E32DA4
:1008B000F42D4081E22DF52D50813181451713062D
:1008C0000CF4B5C0E22DF52D3081E32DF42DE30FAE
:1008D000F11D2081211509F09BC0E22DF52D5081DD
:1008E0004181A1E0A51714060CF0A1C0E22DF52D61
:1008F0002081318121503109E32DF42DE20FF11DCA
:100900002081203309F093C0E22DF52D1082118251
:100910008EC0E22DF52D3081E32DF42DE30FF11D76
:100920002081211509F47FC0322F2053A0E33A170C
:1009300008F43EC0322F2950A9E0A317B8F4322F93
:100940002850A8E03A1708F433C0322F2550A5E00C
:10095000A317B8F4322F2B51ABE13A1708F428C093
:10096000322F2550A5E0A317B8F422C0E22DF52DB3
:100970003081E32DF42DE30FF11D20812053722EE1
:1009800019C0E22DF52D3081E32DF42DE30FF11D7B
:1009900020812753722E0EC0E22DF52D3081E32DDC
:1009A000F42DE30FF11D20812755722E03C03BC0AB
:1009B000A0E17A2E2A81721668F4AFEF6A2FAFEFAA
:1009C0007A2F671971098A81912D0E941802861564
:1009D000980518F4612C812C2AC05A81212D569D2E
:1009E000302D412D269D400D589D400D1124572D31
:1009F000212D530F241F652E822EE22DF52D3081DF
:100A00004181A1E03A0F411DE22DF52D3083418354
:100A1000E32DF42D4081E22DF52D308151814317D6
:100A200015060CF076CFE22DF52D10821182862D61
:100A3000982DCC5FDF4F0FB6F894DEBF0FBECDBF51
:100A40002F903F904F905F906F907F908F90CF91BD
:100A5000DF910895812D912D08957F926F925F927D
:100A60004F923F922F921C012B01F2016081F20103
:100A70007181F1018081F10191810E94F2003C01BC
:100A8000F2016081F2017181F1018081F1019181B6
:100A90000E94DD00F10160827182F2018083918306
:100AA0002F903F904F905F906F907F9008950E949D
:100AB000DB0008950E9457050E94F4050895562F03
:100AC000AFEFA51717061806190674F4AFEF6A2FD3
:100AD000312D412D212D6093AC033093AD03409314
:100AE000AE032093AF0308C05093AC037093AD03E3
:100AF0008093AE039093AF030E945A0508959F928E
:100B00008F927F926F925F924F923F922F92362EEA
:100B1000472E542E652E722E832E30910601209181
:100B200007013115210569F0272D382D452D562D4A
:100B3000632D742D2090060190900701E22DF92D70
:100B40000995232D20930401409205015092020142
:100B50006092030170920801809209016091040182
:100B600070910501812D912D0E945F052F903F907E
:100B70004F905F906F907F908F909F900895DF933C
:100B8000CF935F924F923F922F92CDB7DEB7C65070
:100B9000D0400FB6F894DEBF0FBECDBF1B012C01B5
:100BA0004A835B832C833D8362E070E06C0F7D1F82
:100BB00084E090E08C0F9D1F0E942D052C813D81CB
:100BC0004A815B81B101C2010E947F05CA5FDF4F8C
:100BD0000FB6F894DEBF0FBECDBF2F903F904F9061
:100BE0005F90CF91DF9108950C94F605F8940C94E2
:100BF000F7050C94F905382FCB01A4E2E32FF92F68
:100C0000A083BA01212DA4E23A2FA4EF4A2F512D3F
:100C10000E948001A4E03A2F212D332331F09695D4
:100C20008795779567953A95D1F76A95A8E12A2F28
:100C30002093C100A6E02A2F2093C200262F2695DC
:100C400026952695269526952695269526952093D4
:100C5000C5006093C4002091C00020642093C000B0
:100C60000895AAE02A2F3091C0003072E1F330914C
:100C7000C00030643093C0002093C6000895282F30
:100C80002091C0002072E1F32091C00020642093E5
:100C9000C0006093C60008952091C000207804C071
:100CA0003091C0003078232F2115D1F38091C600F8
:100CB00008950F936F925F924F923F922F921C0173
:100CC0002B01C1010E944C06682EA1E00A2F09C029
:100CD000F201E00FF11D6082C1010E944C06682EF6
:100CE00003950F3F20F4F1012081261589F7202F6D
:100CF0002A95F20120832F903F904F905F906F9044
:100D00000F910895DF93CF933F922F92CDB7DEB727
:100D1000C250D1400FB6F894DEBF0FBECDBF1B014D
:100D200062E070E06C0F7D1F0E945906C10142E035
:100D300050E04C0F5D1FAFEF6A2F712D0E945801DC
:100D4000CE5FDE4F0FB6F894DEBF0FBECDBF2F9043
:100D50003F90CF91DF9108950F938F927F926F9282
:100D60005F924F923F922F92382E492E562E672E29
:100D7000852D962D0E946F01792E81507108282EA5
:100D8000012D812C201678048CF001508108A1E0FF
:100D90000A0F811CE52DF62DE00FF81D6081832DD3
:100DA000942D0E943F06021587048CF32F903F90EC
:100DB0004F905F906F907F908F900F910895DF9389
:100DC000CF937F926F925F924F923F922F92CDB7C7
:100DD000DEB7C450D1400FB6F894DEBF0FBECDBF12
:100DE0002C016A837B834A815B81AFEF6A2F712D6F
:100DF00084E090E08C0F9D1F0E9458016C8035E0CC
:100E000020E03C0F2D1F332E222E6A94712C671484
:100E100060F07A947394E32DF22DE70DF11D60815B
:100E2000C2010E943F067614A8F3CC5FDE4F0FB6D6
:100E3000F894DEBF0FBECDBF2F903F904F905F90D4
:100E40006F907F90CF91DF9108955F924F923F9284
:100E50002F921C01462E642DA4E68A2F0E94B50213
:100E6000582E642DA4E68A2F0E946E02811559F037
:100E7000642DA4E68A2F0E946E02682FA0E36A0FF9
:100E8000C1010E943F06652DAAE08A2F0E946E02D2
:100E9000682FA0E36A0FC1010E943F06652DAAE0FA
:100EA0008A2F0E94B502682FA0E36A0FC1010E9439
:100EB0003F062F903F904F905F900895DF93CF9320
:100EC000CDB7DEB7C650D1400FB6F894DEBF0FBE27
:100ED000CDBF6A837B834A815B81AFEF6A2F712D1F
:100EE00086E090E08C0F9D1F0E94580164E070E046
:100EF0006C0F7D1F86E090E08C0F9D1F0E942B04DD
:100F00002C813D811216130614F4212D01C0282FC7
:100F1000822FCA5FDE4F0FB6F894DEBF0FBECDBF83
:100F2000CF91DF910895DF93CF933F922F92CDB76A
:100F3000DEB7C250D1400FB6F894DEBF0FBECDBFB2
:100F40001C01C10162E070E06C0F7D1F0E948206EF
:100F5000C10162E070E06C0F7D1F0E945E07CE5FF2
:100F6000DE4F0FB6F894DEBF0FBECDBF2F903F907F
:060F7000CF91DF9108950E
:100F760000000000000000000000FF000101020266
:100F86000202030303030303030304040404040427
:100F96000404040404040404040405050505050505
:100FA60005050505050505050505050505050505EB
:100FB60005050505050505050505060606060606D5
:100FC60006060606060606060606060606060606BB
:100FD60006060606060606060606060606060606AB
:100FE600060606060606060606060606060606069B
:100FF6000606060606060606060607070707070785
:10100600070707070707070707070707070707076A
:10101600070707070707070707070707070707075A
:10102600070707070707070707070707070707074A
:10103600070707070707070707070707070707073A
:10104600070707070707070707070707070707072A
:10105600070707070707070707070707070707071A
:10106600070707070707070707070707070707070A
:1010760007070707070707070707506C65617365CA
:101086002C20656E7465722061205B73686F7274C4
:101096005D737472696E67207465726D696E6174D2
:1010A6006564206279206261636B736C6173683A70
:1010B60020001F5B204C616D77696E6F205B736843
:1010C6006F72745D20537472696E672044656D6F2C
:1010D600205D0046506C656173652C20656E7465F5
:1010E600722061205B73686F7274203C2032353544
:1010F6005D20646563696D616C206E756D626572F5
:10110600207465726D696E6174656420627920620F
:0C11160061636B736C6173683A20000029
:00000001FF
