:100000000C9434000C9481000C9481000C948100B9
:100010000C9481000C9481000C9481000C9481005C
:100020000C9481000C9481000C9481000C9481004C
:100030000C9481000C9481000C9481000C9481003C
:100040000C9481000C9481000C9481000C9481002C
:100050000C9481000C9481000C9481000C9481001C
:100060000C9481000C9481001124EFEFEDBFE8E0C7
:10007000EEBFA0E0B1E0D1E0E6E0F1E002C0059023
:100080000D92A230BD07D9F7A2E0B1E0D1E00C9407
:100090004A001D92A230BD07E1F70C947100612D5A
:1000A000512D212D312D6150510921093109A1E036
:1000B0006A0F511D211D311D7091000140910101F8
:1000C000715041097093000140930101A0E87A2F1B
:1000D000AAE18A2FA6E0671758072A0731053CF3E3
:1000E00008950E948000259A529829B12470222EEA
:1000F000211411F02D9A01C02D980E944F00F5CFC8
:0601000008950C9481003B
:020106000000F7
:00000001FF
