:100000000C9434000C947C000C947C000C947C00C8
:100010000C947C000C947C000C947C000C947C0070
:100020000C947C000C947C000C947C000C947C0060
:100030000C947C000C947C000C947C000C947C0050
:100040000C947C000C947C000C947C000C947C0040
:100050000C947C000C947C000C947C000C947C0030
:100060000C947C000C947C001124EFEFEDBFE8E0D1
:10007000EEBFA0E0B1E0D1E0ECEFF0E002C005900F
:100080000D92A230BD07D9F7A2E0B1E0D1E00C9407
:100090004A001D92A230BD07E1F70C947100612D5A
:1000A000512D212D312D6150510921093109A1E036
:1000B0006A0F511D211D311D7091000140910101F8
:1000C000715041097093000140930101A0E87A2F1B
:1000D000AAE18A2FA6E0671758072A0731053CF3E3
:1000E00008950E947B00259A2D980E944F002D9A1A
:0C00F0000E944F00F9CF08950C947C0092
:0200FC00000002
:00000001FF
