:100000000C9434000C9435030C9435030C94350394
:100010000C9435030C9435030C9435030C94350380
:100020000C9435030C9435030C9435030C94350370
:100030000C9435030C9435030C9435030C94350360
:100040000C9435030C9435030C9435030C94350350
:100050000C9435030C9435030C9435030C94350340
:100060000C9435030C9435031124EFEFEDBFE8E059
:10007000EEBFA0E0B1E0D2E0E8E8F8E002C0059011
:100080000D92A033BD07D9F7A0E3B2E0D2E00C9403
:100090004A001D92A533BD07E1F70C947100612D54
:1000A000512D212D312D6150510921093109A1E036
:1000B0006A0F511D211D311D7091000140910101F8
:1000C000715041097093000140930101A0E47A2F1F
:1000D000ADE08A2FA3E0671758072A0731053CF3E4
:1000E00008950E94CC00259A2AE032E0722E632EF9
:1000F00033E122E0232E322E84E392E0A0E84A2F5F
:10010000A5E25A2F612D712D0E9437032D980E9470
:100110004F0084E392E00E946803B10184E392E01F
:100120000E94900384E392E00E94680384E392E0DB
:100130000E948303482E642D84E392E00E9476039C
:1001400084E392E00E946803642D84E392E00E94BD
:10015000EB0384E392E00E946803542C652D84E352
:1001600092E00E94120484E392E00E946803472D0B
:10017000562D642D84E392E00E94C303672D762DF3
:1001800084E392E00E94900384E392E00E9468037B
:100190002D9A0E944F00BACF089508950895DF93D5
:1001A000CF93CDB7DEB7C450D0400FB6F894DEBFC2
:1001B0000FBECDBFCC5FDF4F0FB6F894DEBF0FBED2
:1001C000CDBFCF91DF910895DF93CF93CDB7DEB749
:1001D000C450D0400FB6F894DEBF0FBECDBFCC5F89
:1001E000DF4F0FB6F894DEBF0FBECDBFCF91DF91CA
:1001F00008959C01812D912D2115310551F003C0E9
:10020000A1E08A0F911DF901E80FF91F4081411506
:10021000B9F708950F93FF92EF92CF92BF92AF92EA
:100220009F928F927F926F925F924F923F922F9206
:10023000362E972EA82E492E522E232E3A01012D0E
:10024000F12CE12CC12C31149104A104410481F45E
:100250000E94CE00B82E892E0E946602AC01A8EC46
:100260006A2F712D812D912D2B2D382D0E94FB028F
:10027000511421046104710409F451C0B22C652D9C
:100280007B2DC3010E942F02882E212C632D792DF6
:100290008A2D942D0E942F02212D881622060CF4FF
:1002A0003EC0482D922D481B920B242F732D892D73
:1002B0002A2C342D222331F0770F881F221C331F64
:1002C0002A95D1F7242F211591050CF428C0A1E01F
:1002D0002A0F911D215091095716B8066204730622
:1002E000B0F0571AB80A6208730A322EA1E04A2EFB
:1002F000412D512D612D332031F0440C441F551FE9
:10030000661F3A94D1F7040DF41EE51EC61E3695FD
:10031000279487957795121619060CF4DBCF602F7A
:100320007F2D8E2D9C2D2F903F904F905F906F9042
:100330007F908F909F90AF90BF90CF90EF90FF9065
:100340000F9108956F925F924F923F922F92282EB5
:10035000362E412C211481F40E94CE00582E692E95
:100360000E946602AC01A8EC6A2F712D812D912D9F
:10037000252D362D0E94FB02311409F423C0832D54
:100380000E942902582E822D0E9429025816D0F070
:10039000581A252D222319F0220C2A95E9F7511419
:1003A00088F053945A94321450F03218A1E02A2F56
:1003B000352D332319F0220F3A95E9F7420E269492
:1003C000151480F3842D2F903F904F905F906F9085
:1003D00008956F925F924F923F922F92282E362E61
:1003E000412C211481F40E94CE00582E692E0E94C7
:1003F0006602AC01A8EC6A2F712D812D912D252D5F
:10040000362D0E94FB023114E9F0832D0E9429024F
:10041000582E822D0E942902581610F4432C12C027
:10042000581A252D222319F0220C2A95E9F7511488
:1004300040F053945A94321408F03218269415144C
:10044000C8F3432C842D2F903F904F905F906F9076
:100450000895EAE0F1E0E80FF11D808108952F9200
:10046000582FAFEF4A2FAFEF4617A707150619060B
:1004700081E008F0812D880F880F880F880F282FC2
:10048000222331F096955795779567952A95D1F760
:10049000AFEFA61717061506190621E008F0212D63
:1004A000220F220F220F822B282F2870222331F0B7
:1004B00096955795779567952A95D1F7EAE0F1E0FB
:1004C000E60FF11D2081822B2F900895812D912D13
:1004D00008957F926F925F924F923F922F921C01EC
:1004E0002B01F2016081F2017181F1018081F10142
:1004F00091810E94E4003C01F2016081F20171816E
:10050000F1018081F10191810E94CF00F1016082AF
:100510007182F201808391832F903F904F905F9082
:100520006F907F9008950E94CD0008950E949302DD
:100530000E9430030895562FAFEFA517170618062F
:10054000190674F4AFEF6A2F312D412D212D6093E0
:10055000300230933102409332022093330208C0BC
:1005600050933002709331028093320290933302A1
:100570000E94960208959F928F927F926F925F924F
:100580004F923F922F92362E472E542E652E722E6A
:10059000832E30910601209107013115210569F064
:1005A000272D382D452D562D632D742D20900601B5
:1005B00090900701E22DF92D0995232D2093040138
:1005C000409205015092020160920301709208016D
:1005D000809209016091040170910501812D912D96
:1005E0000E949B022F903F904F905F906F907F9062
:1005F0008F909F900895DF93CF935F924F923F9299
:100600002F92CDB7DEB7C650D0400FB6F894DEBFFC
:100610000FBECDBF1B012C014A835B832C833D831E
:1006200062E070E06C0F7D1F84E090E08C0F9D1FF6
:100630000E9469022C813D814A815B81B101C20126
:100640000E94BB02CA5FDF4F0FB6F894DEBF0FBE39
:10065000CDBF2F903F904F905F90CF91DF91089545
:100660000C943203F8940C9433030C943503CB01AF
:10067000BA01212DA4E23A2FA4EF4A2F512D0E9456
:100680000A01A4E03A2F212D332331F09695879566
:10069000779567953A95D1F76A95A8E12A2F209327
:1006A000C100A6E02A2F2093C200262F269526956A
:1006B0002695269526952695269526952093C50060
:1006C0006093C4002091C00020642093C00008956E
:1006D000AAE02A2F3091C0003072E1F33091C000BF
:1006E00030643093C0002093C6000895282F2091D5
:1006F000C0002072E1F32091C00020642093C0006C
:100700006093C60008952091C000207804C0309105
:10071000C0003078232F2115D1F38091C6000895B1
:100720000F938F927F926F925F924F923F922F9290
:10073000382E492E562E672E852D962D0E94F900B3
:10074000792E81507108282E012D812C20167804D5
:100750008CF001508108A1E00A0F811CE52DF62DD7
:10076000E00FF81D6081832D942D0E947603021501
:1007700087048CF32F903F904F905F906F907F9005
:100780008F900F910895A8E07A2F73957A95272F6F
:100790002A95362F222319F036952A95E9F730FF4E
:1007A0000BC0A8E09A2F312D971B3109A1E3FA0164
:1007B000E90FF31FA0830AC0A8E09A2F312D971BE1
:1007C0003109A0E3FA01E90FF31FA083A1E0A71705
:1007D00008F4DCCF08955F924F923F922F921C0154
:1007E000462EA8E05A2E53945A94252D2A95342D3E
:1007F000222319F036952A95E9F730FF06C0C1018A
:10080000A1E36A2F0E94760305C0C101A0E36A2F0D
:100810000E947603A1E0A51538F32F903F904F90EA
:100820005F9008955F924F923F922F921C01462E47
:10083000642DA4E68A2F0E94E901582E642DA4E6B7
:100840008A2F0E94A201682FA0E36A0FC1010E94B3
:100850007603652DAAE08A2F0E94A201682FA0E3EB
:100860006A0FC1010E947603652DAAE08A2F0E94BB
:10087000E901682FA0E36A0FC1010E9476032F905F
:080880003F904F905F90089536
:1008880000000000000000000000FF00010102025B
:10089800020203030303030303030404040404041C
:1008A80004040404040404040404050505050505FA
:1008B80005050505050505050505050505050505E0
:1008C80005050505050505050505060606060606CA
:1008D80006060606060606060606060606060606B0
:1008E80006060606060606060606060606060606A0
:1008F8000606060606060606060606060606060690
:100908000606060606060606060607070707070779
:10091800070707070707070707070707070707075F
:10092800070707070707070707070707070707074F
:10093800070707070707070707070707070707073F
:10094800070707070707070707070707070707072F
:10095800070707070707070707070707070707071F
:10096800070707070707070707070707070707070F
:1009780007070707070707070707070707070707FF
:1009880007070707070707070707303030303030F9
:10099800303000506C656173652C20456E7465724B
:1009A800206120636861722F64696769743A000086
:00000001FF
